{
  "address": "0x983987C35C50C649CabB56965961aA8B121681A8",
  "abi": [
    {
      "inputs": [
        {
          "internalType": "uint256",
          "name": "_lockTime",
          "type": "uint256"
        },
        {
          "internalType": "address",
          "name": "dataFeedAddr",
          "type": "address"
        }
      ],
      "stateMutability": "nonpayable",
      "type": "constructor"
    },
    {
      "inputs": [],
      "name": "dataFeed",
      "outputs": [
        {
          "internalType": "contract AggregatorV3Interface",
          "name": "",
          "type": "address"
        }
      ],
      "stateMutability": "view",
      "type": "function"
    },
    {
      "inputs": [],
      "name": "fund",
      "outputs": [],
      "stateMutability": "payable",
      "type": "function"
    },
    {
      "inputs": [
        {
          "internalType": "address",
          "name": "",
          "type": "address"
        }
      ],
      "name": "fundersAmount",
      "outputs": [
        {
          "internalType": "uint256",
          "name": "",
          "type": "uint256"
        }
      ],
      "stateMutability": "view",
      "type": "function"
    },
    {
      "inputs": [],
      "name": "getChainlinkDataFeedLatestAnswer",
      "outputs": [
        {
          "internalType": "int256",
          "name": "",
          "type": "int256"
        }
      ],
      "stateMutability": "view",
      "type": "function"
    },
    {
      "inputs": [],
      "name": "getFund",
      "outputs": [],
      "stateMutability": "nonpayable",
      "type": "function"
    },
    {
      "inputs": [],
      "name": "getFundSuccess",
      "outputs": [
        {
          "internalType": "bool",
          "name": "",
          "type": "bool"
        }
      ],
      "stateMutability": "view",
      "type": "function"
    },
    {
      "inputs": [],
      "name": "owner",
      "outputs": [
        {
          "internalType": "address",
          "name": "",
          "type": "address"
        }
      ],
      "stateMutability": "view",
      "type": "function"
    },
    {
      "inputs": [],
      "name": "refund",
      "outputs": [],
      "stateMutability": "nonpayable",
      "type": "function"
    },
    {
      "inputs": [
        {
          "internalType": "address",
          "name": "_erc20Addr",
          "type": "address"
        }
      ],
      "name": "setErc20Addr",
      "outputs": [],
      "stateMutability": "nonpayable",
      "type": "function"
    },
    {
      "inputs": [
        {
          "internalType": "address",
          "name": "funder",
          "type": "address"
        },
        {
          "internalType": "uint256",
          "name": "amountToUpdate",
          "type": "uint256"
        }
      ],
      "name": "setFunderToAmount",
      "outputs": [],
      "stateMutability": "nonpayable",
      "type": "function"
    },
    {
      "inputs": [
        {
          "internalType": "address",
          "name": "newOwner",
          "type": "address"
        }
      ],
      "name": "transferOwnerShip",
      "outputs": [],
      "stateMutability": "nonpayable",
      "type": "function"
    }
  ],
  "transactionHash": "0x559025df39f230ba25ab2479008aa104feef26b62f65043745c5c73785bea032",
  "args": [
    180,
    "0x694AA1769357215DE4FAC081bf1f309aDC325306"
  ],
  "numDeployments": 1,
  "solcInputHash": "d793344cee6af4ee6f02862fab75317a",
  "bytecode": "0x60806040526000600560146101000a81548160ff0219169083151502179055503480156200002c57600080fd5b50604051620016443803806200164483398181016040528101906200005291906200018f565b80600160006101000a81548173ffffffffffffffffffffffffffffffffffffffff021916908373ffffffffffffffffffffffffffffffffffffffff16021790555033600260006101000a81548173ffffffffffffffffffffffffffffffffffffffff021916908373ffffffffffffffffffffffffffffffffffffffff16021790555042600381905550816004819055505050620001d6565b600080fd5b6000819050919050565b6200010481620000ef565b81146200011057600080fd5b50565b6000815190506200012481620000f9565b92915050565b600073ffffffffffffffffffffffffffffffffffffffff82169050919050565b600062000157826200012a565b9050919050565b62000169816200014a565b81146200017557600080fd5b50565b60008151905062000189816200015e565b92915050565b60008060408385031215620001a957620001a8620000ea565b5b6000620001b98582860162000113565b9250506020620001cc8582860162000178565b9150509250929050565b61145e80620001e66000396000f3fe60806040526004361061009c5760003560e01c80639e42ff90116100645780639e42ff901461014c578063b60d428814610177578063bea4dfb514610181578063d39cf006146101ac578063da4658e0146101d5578063e73c0f23146102005761009c565b806313ffff01146100a1578063590e1ae3146100ca5780638863dd1a146100e15780638da5cb5b1461010a5780638edd6eb614610135575b600080fd5b3480156100ad57600080fd5b506100c860048036038101906100c39190610bdb565b61023d565b005b3480156100d657600080fd5b506100df610311565b005b3480156100ed57600080fd5b5061010860048036038101906101039190610bdb565b610563565b005b34801561011657600080fd5b5061011f610637565b60405161012c9190610c17565b60405180910390f35b34801561014157600080fd5b5061014a61065d565b005b34801561015857600080fd5b5061016161089c565b60405161016e9190610c91565b60405180910390f35b61017f6108c2565b005b34801561018d57600080fd5b506101966109a5565b6040516101a39190610cc5565b60405180910390f35b3480156101b857600080fd5b506101d360048036038101906101ce9190610d16565b610a46565b005b3480156101e157600080fd5b506101ea610b1d565b6040516101f79190610d71565b60405180910390f35b34801561020c57600080fd5b5061022760048036038101906102229190610bdb565b610b30565b6040516102349190610d9b565b60405180910390f35b600260009054906101000a900473ffffffffffffffffffffffffffffffffffffffff1673ffffffffffffffffffffffffffffffffffffffff163373ffffffffffffffffffffffffffffffffffffffff16146102cd576040517f08c379a00000000000000000000000000000000000000000000000000000000081526004016102c490610e39565b60405180910390fd5b80600560006101000a81548173ffffffffffffffffffffffffffffffffffffffff021916908373ffffffffffffffffffffffffffffffffffffffff16021790555050565b6004546003546103219190610e88565b421015610363576040517f08c379a000000000000000000000000000000000000000000000000000000000815260040161035a90610f08565b60405180910390fd5b61465061036f47610b48565b106103af576040517f08c379a00000000000000000000000000000000000000000000000000000000081526004016103a690610f74565b60405180910390fd5b60008060003373ffffffffffffffffffffffffffffffffffffffff1673ffffffffffffffffffffffffffffffffffffffff1681526020019081526020016000205403610430576040517f08c379a000000000000000000000000000000000000000000000000000000000815260040161042790610fe0565b60405180910390fd5b60003373ffffffffffffffffffffffffffffffffffffffff166000803373ffffffffffffffffffffffffffffffffffffffff1673ffffffffffffffffffffffffffffffffffffffff1681526020019081526020016000205460405161049490611031565b60006040518083038185875af1925050503d80600081146104d1576040519150601f19603f3d011682016040523d82523d6000602084013e6104d6565b606091505b5050809150508061051c576040517f08c379a000000000000000000000000000000000000000000000000000000000815260040161051390611092565b60405180910390fd5b60008060003373ffffffffffffffffffffffffffffffffffffffff1673ffffffffffffffffffffffffffffffffffffffff1681526020019081526020016000208190555050565b600260009054906101000a900473ffffffffffffffffffffffffffffffffffffffff1673ffffffffffffffffffffffffffffffffffffffff163373ffffffffffffffffffffffffffffffffffffffff16146105f3576040517f08c379a00000000000000000000000000000000000000000000000000000000081526004016105ea90610e39565b60405180910390fd5b80600260006101000a81548173ffffffffffffffffffffffffffffffffffffffff021916908373ffffffffffffffffffffffffffffffffffffffff16021790555050565b600260009054906101000a900473ffffffffffffffffffffffffffffffffffffffff1681565b60045460035461066d9190610e88565b4210156106af576040517f08c379a00000000000000000000000000000000000000000000000000000000081526004016106a690610f08565b60405180910390fd5b600260009054906101000a900473ffffffffffffffffffffffffffffffffffffffff1673ffffffffffffffffffffffffffffffffffffffff163373ffffffffffffffffffffffffffffffffffffffff161461073f576040517f08c379a000000000000000000000000000000000000000000000000000000000815260040161073690610e39565b60405180910390fd5b61465061074b47610b48565b101561078c576040517f08c379a0000000000000000000000000000000000000000000000000000000008152600401610783906110fe565b60405180910390fd5b60003373ffffffffffffffffffffffffffffffffffffffff16476040516107b290611031565b60006040518083038185875af1925050503d80600081146107ef576040519150601f19603f3d011682016040523d82523d6000602084013e6107f4565b606091505b5050809150508061083a576040517f08c379a000000000000000000000000000000000000000000000000000000000815260040161083190611092565b60405180910390fd5b60008060003373ffffffffffffffffffffffffffffffffffffffff1673ffffffffffffffffffffffffffffffffffffffff168152602001908152602001600020819055506001600560146101000a81548160ff02191690831515021790555050565b600160009054906101000a900473ffffffffffffffffffffffffffffffffffffffff1681565b6146506108ce34610b48565b101561090f576040517f08c379a00000000000000000000000000000000000000000000000000000000081526004016109069061116a565b60405180910390fd5b60045460035461091f9190610e88565b4210610960576040517f08c379a0000000000000000000000000000000000000000000000000000000008152600401610957906111d6565b60405180910390fd5b346000803373ffffffffffffffffffffffffffffffffffffffff1673ffffffffffffffffffffffffffffffffffffffff16815260200190815260200160002081905550565b600080600160009054906101000a900473ffffffffffffffffffffffffffffffffffffffff1673ffffffffffffffffffffffffffffffffffffffff1663feaf968c6040518163ffffffff1660e01b815260040160a060405180830381865afa158015610a15573d6000803e3d6000fd5b505050506040513d601f19601f82011682018060405250810190610a399190611279565b5050509150508091505090565b600560009054906101000a900473ffffffffffffffffffffffffffffffffffffffff1673ffffffffffffffffffffffffffffffffffffffff163373ffffffffffffffffffffffffffffffffffffffff1614610ad6576040517f08c379a0000000000000000000000000000000000000000000000000000000008152600401610acd90611366565b60405180910390fd5b806000808473ffffffffffffffffffffffffffffffffffffffff1673ffffffffffffffffffffffffffffffffffffffff168152602001908152602001600020819055505050565b600560149054906101000a900460ff1681565b60006020528060005260406000206000915090505481565b600080610b536109a5565b90506305f5e1008184610b669190611386565b610b7091906113f7565b915050919050565b600080fd5b600073ffffffffffffffffffffffffffffffffffffffff82169050919050565b6000610ba882610b7d565b9050919050565b610bb881610b9d565b8114610bc357600080fd5b50565b600081359050610bd581610baf565b92915050565b600060208284031215610bf157610bf0610b78565b5b6000610bff84828501610bc6565b91505092915050565b610c1181610b9d565b82525050565b6000602082019050610c2c6000830184610c08565b92915050565b6000819050919050565b6000610c57610c52610c4d84610b7d565b610c32565b610b7d565b9050919050565b6000610c6982610c3c565b9050919050565b6000610c7b82610c5e565b9050919050565b610c8b81610c70565b82525050565b6000602082019050610ca66000830184610c82565b92915050565b6000819050919050565b610cbf81610cac565b82525050565b6000602082019050610cda6000830184610cb6565b92915050565b6000819050919050565b610cf381610ce0565b8114610cfe57600080fd5b50565b600081359050610d1081610cea565b92915050565b60008060408385031215610d2d57610d2c610b78565b5b6000610d3b85828601610bc6565b9250506020610d4c85828601610d01565b9150509250929050565b60008115159050919050565b610d6b81610d56565b82525050565b6000602082019050610d866000830184610d62565b92915050565b610d9581610ce0565b82525050565b6000602082019050610db06000830184610d8c565b92915050565b600082825260208201905092915050565b7f746869732066756e6374696f6e2063616e206f6e6c792063616c6c656420627960008201527f206f776e65720000000000000000000000000000000000000000000000000000602082015250565b6000610e23602683610db6565b9150610e2e82610dc7565b604082019050919050565b60006020820190508181036000830152610e5281610e16565b9050919050565b7f4e487b7100000000000000000000000000000000000000000000000000000000600052601160045260246000fd5b6000610e9382610ce0565b9150610e9e83610ce0565b9250828201905080821115610eb657610eb5610e59565b5b92915050565b7f77696e646f77206973206e6f7420636c6f736564000000000000000000000000600082015250565b6000610ef2601483610db6565b9150610efd82610ebc565b602082019050919050565b60006020820190508181036000830152610f2181610ee5565b9050919050565b7f5461726765742069732072656163686564000000000000000000000000000000600082015250565b6000610f5e601183610db6565b9150610f6982610f28565b602082019050919050565b60006020820190508181036000830152610f8d81610f51565b9050919050565b7f7468657265206973206e6f2066756e6420666f7220796f750000000000000000600082015250565b6000610fca601883610db6565b9150610fd582610f94565b602082019050919050565b60006020820190508181036000830152610ff981610fbd565b9050919050565b600081905092915050565b50565b600061101b600083611000565b91506110268261100b565b600082019050919050565b600061103c8261100e565b9150819050919050565b7f7478206661696c65640000000000000000000000000000000000000000000000600082015250565b600061107c600983610db6565b915061108782611046565b602082019050919050565b600060208201905081810360008301526110ab8161106f565b9050919050565b7f546172676574206973206e6f7420726561636865640000000000000000000000600082015250565b60006110e8601583610db6565b91506110f3826110b2565b602082019050919050565b60006020820190508181036000830152611117816110db565b9050919050565b7f53656e64206d6f72652045544800000000000000000000000000000000000000600082015250565b6000611154600d83610db6565b915061115f8261111e565b602082019050919050565b6000602082019050818103600083015261118381611147565b9050919050565b7f77696e646f7720697320636c6f73656400000000000000000000000000000000600082015250565b60006111c0601083610db6565b91506111cb8261118a565b602082019050919050565b600060208201905081810360008301526111ef816111b3565b9050919050565b600069ffffffffffffffffffff82169050919050565b611215816111f6565b811461122057600080fd5b50565b6000815190506112328161120c565b92915050565b61124181610cac565b811461124c57600080fd5b50565b60008151905061125e81611238565b92915050565b60008151905061127381610cea565b92915050565b600080600080600060a0868803121561129557611294610b78565b5b60006112a388828901611223565b95505060206112b48882890161124f565b94505060406112c588828901611264565b93505060606112d688828901611264565b92505060806112e788828901611223565b9150509295509295909350565b7f596f7520646f206e6f742068617665207065726d697373696f6e20746f20636160008201527f6c6c20746869732066756e74696f6e0000000000000000000000000000000000602082015250565b6000611350602f83610db6565b915061135b826112f4565b604082019050919050565b6000602082019050818103600083015261137f81611343565b9050919050565b600061139182610ce0565b915061139c83610ce0565b92508282026113aa81610ce0565b915082820484148315176113c1576113c0610e59565b5b5092915050565b7f4e487b7100000000000000000000000000000000000000000000000000000000600052601260045260246000fd5b600061140282610ce0565b915061140d83610ce0565b92508261141d5761141c6113c8565b5b82820490509291505056fea26469706673582212202e1120fa9da6c167f667798ac6cea7fdfeda03bcc5efa2d8ece62eae74ca116e64736f6c63430008180033",
  "devdoc": {
    "kind": "dev",
    "methods": {},
    "version": 1
  },
  "userdoc": {
    "kind": "user",
    "methods": {
      "getChainlinkDataFeedLatestAnswer()": {
        "notice": "Returns the latest answer."
      }
    },
    "version": 1
  },
  "storageLayout": {
    "storage": [
      {
        "astId": 53,
        "contract": "contracts/FundMe.sol:FundMe",
        "label": "fundersAmount",
        "offset": 0,
        "slot": "0",
        "type": "t_mapping(t_address,t_uint256)"
      },
      {
        "astId": 63,
        "contract": "contracts/FundMe.sol:FundMe",
        "label": "dataFeed",
        "offset": 0,
        "slot": "1",
        "type": "t_contract(AggregatorV3Interface)45"
      },
      {
        "astId": 72,
        "contract": "contracts/FundMe.sol:FundMe",
        "label": "owner",
        "offset": 0,
        "slot": "2",
        "type": "t_address"
      },
      {
        "astId": 74,
        "contract": "contracts/FundMe.sol:FundMe",
        "label": "deploymentTimestamp",
        "offset": 0,
        "slot": "3",
        "type": "t_uint256"
      },
      {
        "astId": 76,
        "contract": "contracts/FundMe.sol:FundMe",
        "label": "lockTime",
        "offset": 0,
        "slot": "4",
        "type": "t_uint256"
      },
      {
        "astId": 78,
        "contract": "contracts/FundMe.sol:FundMe",
        "label": "erc20Addr",
        "offset": 0,
        "slot": "5",
        "type": "t_address"
      },
      {
        "astId": 81,
        "contract": "contracts/FundMe.sol:FundMe",
        "label": "getFundSuccess",
        "offset": 20,
        "slot": "5",
        "type": "t_bool"
      }
    ],
    "types": {
      "t_address": {
        "encoding": "inplace",
        "label": "address",
        "numberOfBytes": "20"
      },
      "t_bool": {
        "encoding": "inplace",
        "label": "bool",
        "numberOfBytes": "1"
      },
      "t_contract(AggregatorV3Interface)45": {
        "encoding": "inplace",
        "label": "contract AggregatorV3Interface",
        "numberOfBytes": "20"
      },
      "t_mapping(t_address,t_uint256)": {
        "encoding": "mapping",
        "key": "t_address",
        "label": "mapping(address => uint256)",
        "numberOfBytes": "32",
        "value": "t_uint256"
      },
      "t_uint256": {
        "encoding": "inplace",
        "label": "uint256",
        "numberOfBytes": "32"
      }
    }
  }
}